:100000000C9472000C9493000C9493000C94930045
:100010000C9493000C9493000C9493000C94930014
:100020000C9493000C9493000C9493000C94930004
:100030000C9493000C9493000C9493000C949300F4
:100040000C9493000C9493000C9493000C949300E4
:100050000C9493000C9493000C9493000C949300D4
:100060000C9493000C9493000C9493000C949300C4
:100070000C9493000C9493000C9493000C949300B4
:100080000C9493000C9493000C9493000C949300A4
:100090000C9493000C9493000C9493000C94930094
:1000A0000C9493000C9493000C9493000C94930084
:1000B0000C9493000C9493000C9493000C94930074
:1000C0000C9493000C9493000C9493000C94930064
:1000D0000C9493000C9493000C9493000C94930054
:1000E0000C94930011241FBECFEFD1E2DEBFCDBF31
:1000F00000E00CBF12E0A0E0B2E0E4EFF2E000E0CC
:100100000BBF02C007900D92A033B107D9F722E0D0
:10011000A0E3B2E001C01D92A133B207E1F70E9453
:100120000D010C9478010C940000CF93DF93FC0137
:1001300080818A3349F0EB01DF0111968993FD013B
:10014000BE018D918A33D1F7DB011C9291819923F5
:1001500061F09B3351F0329602C09B3331F0DA01EB
:100160009D93AD0191919111F8CFFA011082DF9129
:10017000CF910895DC01FB019C918081992371F05E
:1001800098130CC0119603C0F901981307C09F0182
:100190002F5F3F4F9D9181819111F6CF981B892F41
:1001A00008951092C50082E38093C40086E0809396
:1001B000C20088E98093C10008959091C00095FF26
:1001C000FCCF8093C60008958091C00087FFFCCFCC
:1001D0008091C6000895FC012081222351F03196C0
:1001E0009091C00095FFFCCF2093C6002191211172
:1001F000F7CF0895FC019091C00097FFFCCF90913C
:10020000C6009193992329F09A3011F09D3099F707
:1002100011929E2F981B892F0895CF93DF93CDB70E
:10022000DEB7D3500FB6F894DEBF0FBECDBF0E942D
:10023000D100CE018F5F9D4F0E94FA00CF5FDD4F4E
:100240008881C150D2408A3309F44BC0DE01AF5FD0
:10025000BE4FE1E0F2E0EC0FFD1F31968D939F0160
:10026000AD0181918A33D1F7FA011082F9018181C0
:100270008823A1F18B3391F13296DE01119602C0F1
:100280008B3321F08D9381918111FACF1C92CF5F36
:10029000DE4F8881C150D140882359F2833749F617
:1002A000A1E0B1E0AC0FBD1F1196E8E0F2E004C0A0
:1002B000F90190818913BDCF9F012F5F3F4F8D9131
:1002C0008111F6CF81818111B4CF809130028111EB
:1002D000B0CF8EE092E00E94EB00ABCFDE01119632
:1002E000D5CF9E012F5F3D4FAE014F5F5E4FBCCF1C
:0402F000F894FFCFB0
:1002F4001B02200226022D02736E616D65006E6181
:100304006D65207365747465642E0071796368008B
:10031400736376616C0073636E616D65003A00000F
:00000001FF
