:100000000C9472000C9493000C9493000C94930045
:100010000C9493000C9493000C9493000C94930014
:100020000C9493000C9493000C9493000C94930004
:100030000C9493000C9493000C9493000C949300F4
:100040000C9493000C9493000C9493000C949300E4
:100050000C9493000C9493000C9493000C949300D4
:100060000C9493000C9493000C9493000C949300C4
:100070000C9493000C9493000C9493000C949300B4
:100080000C9493000C9493000C9493000C949300A4
:100090000C9493000C9493000C9493000C94930094
:1000A0000C9493000C9493000C9493000C94930084
:1000B0000C9493000C9493000C9493000C94930074
:1000C0000C9493000C9493000C9493000C94930064
:1000D0000C9493000C9493000C9493000C94930054
:1000E0000C94930011241FBECFEFD1E2DEBFCDBF31
:1000F00000E00CBF12E0A0E0B2E0E6E2F3E000E0D6
:100100000BBF02C007900D92A430B107D9F722E0CF
:10011000A4E0B2E001C01D92A630B207E1F70E9450
:1001200011010C9491010C94000084B18FEF84B9FB
:100130000895CF93DF93FC0180818A3349F0EB016E
:10014000DF0111968993FD01BE018D918A33D1F7AC
:10015000DB011C929181992361F09B3351F032961F
:1001600002C09B3331F0DA019D93AD019191911161
:10017000F8CFFA011082DF91CF910895DC01FB01E5
:100180009C918081992371F098130CC0119603C043
:10019000F901981307C09F012F5F3F4F9D91818107
:1001A0009111F6CF981B892F08951092C50082E314
:1001B0008093C40086E08093C20088E98093C100E8
:1001C00008959091C00095FFFCCF8093C6000895DC
:1001D0008091C00087FFFCCF8091C6000895FC018C
:1001E0002081222351F031969091C00095FFFCCFE1
:1001F0002093C60021912111F7CF0895FC01909121
:10020000C00097FFFCCF9091C6009193992329F0ED
:100210009A3011F09D3099F711929E2F981B892FDB
:100220000895CF93DF93CDB7DEB7D3500FB6F894D0
:10023000DEBF0FBECDBF0E94D50084B18FEF84B961
:1002400001E010E0CE018F5F9D4F0E94FE00CF5F66
:10025000DD4F8881C150D2408A3309F45BC0DE0192
:10026000AF5FBE4FE1E0F2E0EC0FFD1F31968D93E2
:100270009F01AD0181918A33D1F7FA011082F90112
:100280008181882309F443C08B3309F440C032963E
:10029000DE01119602C08B3321F08D938191811183
:1002A000FACF1C92CE018F5F9E4F0E94EF00CE01CD
:1002B00001960E94EF00CF5FDE4FE880C150D14031
:1002C000F12CF0E3EF1AF108C7010E94EF00C8011A
:1002D00001C0880FEA94EAF780930502298121334F
:1002E00059F42A812111AECF95B1892B85B980E0CF
:1002F00092E00E94EF00A6CF203309F0A3CF2A811D
:100300002111A0CF95B18095892385B99BCFDE01BE
:100310001196C7CF9E012F5F3D4FAE014F5F5E4FDD
:06032000ACCFF894FFCF02
:040326006F6E0A00EC
:00000001FF
