:100000000C9472000C9493000C9493000C94930045
:100010000C9493000C9493000C9493000C94930014
:100020000C9493000C9493000C9493000C94930004
:100030000C9493000C9493000C9493000C949300F4
:100040000C9493000C9493000C9493000C949300E4
:100050000C9493000C9493000C9493000C949300D4
:100060000C9493000C9493000C9493000C949300C4
:100070000C9493000C9493000C9493000C949300B4
:100080000C9493000C9493000C9493000C949300A4
:100090000C9493000C9493000C9493000C94930094
:1000A0000C9493000C9493000C9493000C94930084
:1000B0000C9493000C9493000C9493000C94930074
:1000C0000C9493000C9493000C9493000C94930064
:1000D0000C9493000C9493000C9493000C94930054
:1000E0000C94930011241FBECFEFD1E2DEBFCDBF31
:1000F00000E00CBF12E0A0E0B2E0E4E5FBE000E0CD
:100100000BBF02C007900D92AA30B107D9F722E0C9
:10011000AAE0B2E001C01D92AC30B207E1F70E9444
:1001200086010C94A8050C94000084B18FEF84B96B
:10013000089511B80895ECE7F0E080818064808331
:10014000EAE7F0E080818768808308958F7080936C
:100150007C0080917A00806480937A0080917A009C
:1001600086FDFCCF80917800909179000895EF9200
:10017000FF920F931F93CF93DF93EC019881E0E000
:10018000F0E09B3339F19A3309F444C0E130F105D2
:1001900009F44AC0E230F10564F1E230F10509F4F6
:1001A00052C0E330F10569F778012196F701919388
:1001B0007F01DE018F0199919B3361F0E4E0F0E073
:1001C0009A3351F1F70191937F01DE018F019991EB
:1001D0009B33A1F7FB011082FA011082F901108212
:1001E000F8011082DF91CF911F910F91FF90EF9056
:1001F0000895309731F67B012196F70191937F01A5
:10020000DE01BF0199919B3329F3E1E0F0E09A33DD
:10021000A1F702C03196DE01ED01219611969C9165
:10022000E130F10509F0B6CF7A012196F7019193FB
:100230007F01DE01AF0199919B3361F2E2E0F0E0D2
:100240009A33A1F7E9CF79012196F70191937F01C4
:10025000DE019F0199919B3309F4BCCFE3E0F0E00C
:100260009A3399F7D9CFDC01FB019C9180819923C6
:1002700071F098130CC0119603C0F901981307C0D0
:100280009F012F5F3F4F9D9181819111F6CF981B68
:10029000892F08951092C50082E38093C40086E000
:1002A0008093C20088E98093C10008959091C000B6
:1002B00095FFFCCF8093C60008958091C00087FF12
:1002C000FCCF8091C6000895FC012081222351F0CB
:1002D00031969091C00095FFFCCF2093C6002191EC
:1002E0002111F7CF0895FC019091C00097FFFCCF3A
:1002F0009091C6009193992329F09A3011F09D3086
:1003000099F711929E2F981B892F0895CF93DF9311
:10031000CDB7DEB7C550D5400FB6F894DEBF0FBEDF
:10032000CDBF0E944A0184B18FEF84B911B880918A
:100330007C00806480937C0080917A008768809341
:100340007A008E010F5F1A4F88248394912CCE017E
:100350008F5F9B4F0E947301CF5FDB4F8881C1503D
:10036000D44020E030E0AE014F5F5F4F5A01BE0144
:100370006F5F7D4FDE01AF5FBC4F7D01FE01EF5F20
:10038000FE4F6F01FD5F8B33E1F18A3309F48EC0BC
:100390002130310501F1223031050CF46FC02230DB
:1003A000310509F48BC02330310569F7A501319679
:1003B000DA018D93AD01DF015A0181918B3309F18F
:1003C00024E030E08A33A1F7FD01319611968C913B
:1003D0002130310501F7A7013196DA018D93AD0186
:1003E000DF017A0181918B3361F022E030E08A33C2
:1003F00059F3DA018D93AD01DF017A0181918B33DD
:10040000A1F7F6011082D7011C92FB011082D501E1
:100410001C92CF5FDC4F8881C150D34090E09C019B
:1004200020533109CF5FDE4F8881C150D14090E029
:10043000C0978130910509F47AC08230910509F4A2
:1004400051C0892B09F083CFC40101C0880F2A95C0
:10045000EAF780930B02CF5FDD4F2881C150D24075
:10046000213309F078C0CE5FDD4F2881C250D240E1
:1004700021116DCF95B1892B85B969CF2115310532
:1004800009F081CFA6013196DA018D93AD01DF012C
:100490006A0181918B3309F4B4CF21E030E08A33D3
:1004A00099F7FD01319611968C9192CF2F5F3F4FB6
:1004B000DF01FD01319611968C918ACFAB01319607
:1004C000DA018D93AD01DF01BA0181918B3309F41B
:1004D00098CF23E030E08A3399F7FD0131961196E9
:1004E0008C9176CF822F8F7080937C0080917A00E0
:1004F000806480937A0080917A0086FDFCCF8091A1
:100500007800909179009F938F9384E092E09F937D
:100510008F931F930F930E94BF02C8010E94640132
:100520000F900F900F900F900F900F9010CF02C070
:10053000880F991F2A95E2F780930A0220B130E0D4
:1005400028233923992728173907A1F082E092E060
:100550000E946401FCCE203309F0F9CECE5FDD4F5E
:100560002881C250D2402111F2CE95B180958923C5
:1005700085B9EDCE80E092E00E946401E8CE0F9351
:100580001F93CF93DF93CDB7DEB72E970FB6F894B6
:10059000DEBF0FBECDBF0E891F8986E08C831A8314
:1005A00009838FEF9FE79E838D83AE01465E5F4F89
:1005B000688D798DCE0101960E94EE02EF81F8855B
:1005C000E00FF11F10822E960FB6F894DEBF0FBE1B
:1005D000CDBFDF91CF911F910F9108952F923F9240
:1005E0004F925F926F927F928F929F92AF92BF9243
:1005F000CF92DF92EF92FF920F931F93CF93DF93EF
:10060000CDB7DEB72B970FB6F894DEBF0FBECDBFC8
:100610006C017B018A01FC0117821682838181FFB4
:10062000CCC1CE0101963C01F6019381F70193FD07
:10063000859193FF81917F01882309F4BAC18532A6
:1006400039F493FD859193FF81917F01853229F4DF
:10065000B60190E00E940E05E7CF912C212C312CA1
:10066000FFE1F315D8F08B3279F038F4803279F06D
:100670008332A1F4232D20611DC08D3261F08033BF
:1006800069F4232D216016C0832D8260382EE32D5E
:10069000E4603E2E2AC0F32DF8601DC037FC2DC04B
:1006A00020ED280F2A3040F08E32B9F436FC81C19B
:1006B000232D2064322E19C036FE06C08AE0989E93
:1006C000200D1124922E11C0EAE02E9E200D11243F
:1006D000222EF32DF0623F2E08C08C3621F4832D9C
:1006E0008068382E02C0883641F4F70193FD859169
:1006F00093FF81917F018111B3CF982F9F7D9554F6
:10070000933028F40C5F1F4F9FE399830DC083360D
:1007100031F0833771F0833509F059C021C0F801F9
:10072000808189830E5F1F4F88248394912C53010D
:1007300013C02801F2E04F0E511CF801A080B180D7
:1007400036FE03C0692D70E002C06FEF7FEFC50178
:100750000E9403054C018201F32DFF773F2E16C046
:10076000280122E0420E511CF801A080B18036FE23
:1007700003C0692D70E002C06FEF7FEFC5010E94DA
:10078000F8044C01F32DF0683F2E820133FC1BC0AE
:10079000822D90E088169906B0F4B60180E290E0D0
:1007A0000E940E052A94F4CFF50137FC859137FE9F
:1007B00081915F01B60190E00E940E0521102A94FC
:1007C00021E0821A91088114910471F7E8C08436FF
:1007D00011F0893641F5F80137FE07C0608171815B
:1007E000828193810C5F1F4F08C060817181072E49
:1007F000000C880B990B0E5F1F4FF32DFF763F2ED9
:1008000097FF09C090958095709561957F4F8F4FA8
:100810009F4FF0683F2E2AE030E0A3010E944A0576
:10082000882E861845C0853731F4232D2F7EB22EB1
:100830002AE030E025C0932D997FB92E8F36C1F084
:1008400018F4883579F0B5C0803719F0883721F071
:10085000B0C0E92FE061BE2EB4FE0DC0FB2DF460E8
:10086000BF2E09C034FE0AC0292F2660B22E06C052
:1008700028E030E005C020E130E002C020E132E0B5
:10088000F801B7FE07C060817181828193810C5F9E
:100890001F4F06C06081718180E090E00E5F1F4FA6
:1008A000A3010E944A05882E8618FB2DFF773F2E54
:1008B00036FE0DC0232D2E7FA22E891458F434FE4F
:1008C0000BC032FC09C0832D8E7EA82E05C0B82C2B
:1008D000A32C03C0B82C01C0B92CA4FE0FC0FE018C
:1008E000E80DF11D8081803321F49A2D997EA92E87
:1008F00009C0A2FE06C0B394B39404C08A2D8678C2
:1009000009F0B394A3FC11C0A0FE06C0B21488F491
:10091000280C922C9B180EC0B21460F4B60180E231
:1009200090E00E940E05B394F7CFB21418F42B1880
:1009300002C0982C212CA4FE10C0B60180E390E0E8
:100940000E940E05A2FE17C0A1FC03C088E790E03C
:1009500002C088E590E0B6010CC08A2D867859F077
:10096000A1FE02C08BE201C080E2A7FC8DE2B601CD
:1009700090E00E940E05891438F4B60180E390E0FF
:100980000E940E059A94F7CF8A94F301E80DF11DA9
:100990008081B60190E00E940E058110F5CF2220E3
:1009A00009F442CEB60180E290E00E940E052A943E
:1009B000F6CFF6018681978102C08FEF9FEF2B96CD
:1009C0000FB6F894DEBF0FBECDBFDF91CF911F9160
:1009D0000F91FF90EF90DF90CF90BF90AF909F90DE
:1009E0008F907F906F905F904F903F902F900895E1
:1009F000FC010590615070400110D8F780959095EA
:100A00008E0F9F1F0895FC016150704001900110EE
:100A1000D8F7809590958E0F9F1F08950F931F9381
:100A2000CF93DF93FB01238121FD03C08FEF9FEF65
:100A30002CC022FF16C04681578124813581421780
:100A4000530744F4A081B1819D012F5F3F4F318353
:100A500020838C93268137812F5F3F4F37832683F6
:100A600014C08B01EC01FB010084F185E02D199588
:100A7000892BE1F6D80116968D919C9117970196D6
:100A800017969C938E931697CE01DF91CF911F916D
:100A90000F910895FA01AA27283051F1203181F1F0
:100AA000E8946F936E7F6E5F7F4F8F4F9F4FAF4F76
:100AB000B1E03ED0B4E03CD0670F781F891F9A1F89
:100AC000A11D680F791F8A1F911DA11D6A0F711D3D
:100AD000811D911DA11D20D009F468943F912AE049
:100AE000269F11243019305D3193DEF6CF01089531
:100AF000462F4770405D4193B3E00FD0C9F7F6CF62
:100B0000462F4F70405D4A3318F0495D31FD405229
:100B1000419302D0A9F7EACFB4E0A69597958795BF
:100B200077956795BA95C9F700976105710508959E
:100B30009B01AC010A2E069457954795379527954A
:100B4000BA95C9F7620F731F841F951FA01D0895E2
:040B5000F894FFCF47
:0A0B54003100300025303464000049
:00000001FF
